:400000000040002011000000DD090000DD09000080B500AF00F010FD80B500AF184B12221A6001F0B5F8174B181C00F001FE302000F0AAFE144B154A1A60154B8022D20591
:400040001A60144BCE22D2011A60134B134A1A60134BCC2292011A600F4B124A1A60124B802212061A60114BA02292031A60104B41221A60064B8022D2051A60BD4680BD32
:4000800030001040001BB70004010B40060000800C020B40000301400000014040FF00800403014041FF008008010B4000010B404C01014080B586B000AF72B6674B01222E
:4000C0001A703B1C173300221A7026E03B1C17331A78131C5B009B185B00614A9B183B613B691A78597809020A43997809040A43DB781B0613431A1C3B6919795B791B026D
:400100000B439BB2101C191C00F01AFD3B1C17331A783B1C173301321A703B1C17331B78022BD3D93B1C173300221A7038E03B1C17331A78131C9B009B185B00494A9B1868
:40014000FB60FB681A78597809020A43997809040A43DB781B061343BB60FB681A79597909020A43997909040A43DB791B0613437B60BA1CFB68197A5B7A1B020B431380E5
:40018000BB1C1B88B9687A68081C111C1A1C00F0E7FC3B1C17331A783B1C173301321A703B1C17331B78002BC1D02F4A2F4B101C191C00F0E7FC2E4B802252001A802D4B41
:4001C00001221A702C4B2D4A1A602D4B2D4A1A602D4B992212041A602C4B2D4A1A602D4B2D4A1A602D4B802212031A602C4B802252021A602B4B01221A602B4B01221A6037
:400200002A4B2A4A1278D2B202210A43D2B21A70274B274A1278D2B23C218A43D2B214210A43D2B21A70214B204A1278D2B216210A43D2B21A701F4B1F221A601E4B1F4AAD
:400240001A601F4B01221A601E4B1F4A1A60FFF7E3FE00F0D7FCBD4606B080BD1C700F40541F0000681F0000741F0000981F000000600F4002600F400002024033330300F5
:400280000003024003EE000020500F4028500F400000630230500F400400990034500F4038500F402000104000800F4000700F4001700F400002044008020440B66D000092
:4002C00000030440080304408E0D000010B5064C2378002B07D1054B002B02D0044800E000BF0123237010BD4801002000000000781C000008B5084B002B03D007480849B1
:4003000000E000BF07480368002B03D0064B002B00D0984708BDC04600000000781C00004C010020C80000200000000090B583B000AFFC1D00F014FE031C2370FB1D1B78E8
:40034000181C00F033FE524B1B78042B00D99CE09A00504BD3181B689F46FB1D1B78181C00F012FA4C4B181C00F050FE8DE0FB1D1B78302B11D9FB1D1B78382B0DD8474B26
:400380001A68131C9B009B185B001A1CFB1D1B78303BD218414B1A6019E0FB1D1B780D2B03D0FB1D1B780A2B11D13C4B1B683C48191C00F0A9FF031C1A1C3A4B1A60344B08
:4003C00000221A70384B181C00F020FE5DE05CE0FB1D1B78181C00F037FA2F4B181C00F015FE52E0FB1D1B78792B03D0FB1D1B78592B0DD1264B02221A70274B181C00F04C
:4004000005FE00F099FA294B181C00F0FFFD1BE0FB1D1B786E2B03D0FB1D1B784E2B0BD11B4B00221A70224B181C00F0EFFD1F4B181C00F0EBFD07E01E4B181C00F0E6FD34
:400440001A4B181C00F0E2FD134B181C00F0DEFD1BE0FB1D1B78782B0BD10D4B00221A70134B181C00F0D2FD104B181C00F0CEFD0AE0114B1B685A680F4B1A600E4B1B68B8
:400480001B88181C00F040F8C046BD4603B090BD65010020DC1C00007C1C00007001002040420F00CC000020801C0000881C00008C1C0000BC1C00008001002080B500AFCB
:4004C00000F042F90FE00D4B1B681B88181C00F01BF80A4B1B685A68084B1A60084B1B68181C00F0B7FC074B1B78002BEBD0C046044B1B78012BFBD0C046F4E780010020ED
:40050000CC0000206C01002080B584B000AF786000F010FE031C1A1C3B1C0F330F218A431A707B68DAB23B1C0F331B781343DBB2DBB2181C00F0EEFDBD4604B080BDC046CB
:4005400090B583B000AFFC1D00F0F4FD031C2370FB1DFA1D127810218A431A70084B1B78002B05D0FB1DFA1D127810210A431A70FB1D1B78181C00F0CDFDBD4603B090BD24
:400580006401002080B582B000AF00233B600C2000F048FF031C1A1C1B4B1A601A4B1A681A4B1A60194B1B6800221A8001237B6016E00C2000F036FF031C3B607B689AB2B2
:4005C0003B681A80104B1B683A685A600E4B1A683B689A600C4B3A681A607B6801337B607B680F2BE5DD084B1B68084A12685A60064B1B68044A12689A60044B1A68024BB8
:400600001A60BD4602B080BD800100208401002080B584B000AF78601F4B1B68FB600023BB60FB681B881A1C7B689A4201D100232EE0FB681B881A1C7B689A421FDAFB683D
:400640005B681B881A1C7B689A4218DD0C2000F0E9FE031CBB607B689AB2BB681A80BB68FA689A60FB685A68BB685A60FB68BA685A60FB685B68BA689A60012308E0FB6890
:400680005B68FB60044B1B68FA689A42C9D10023181CBD4604B080BD8401002080B584B000AF7860184B1B68FB60FB681B881A1C7B689A420AD1FB689B68FA6852685A603F
:4006C000FB68181C00F0B8FE012319E0FB685B68FB60FB681B881A1C7B689A420AD1FB689B68FA6852685A60FB68181C00F0A4FE012305E0044B1B68FA689A42E6D10023F1
:40070000181CBD4604B080BD8401002080B584B000AF78600B4B1B68FB60FB681B881A1C7B689A4201D1012308E0FB685B68FB60044B1B68FA689A42EFD10023181CBD4644
:4007400004B080BD8401002080B500AF62B600F0A5FB0A4B181C00F083FC094B181C00F055FC002000F0D6FCFFF70CFF00F0AAF8044B181C00F04AFCBD4680BD2D030000F8
:40078000F01C0000881C000080B582B000AF021CFB1D1A70FB1D1B78332B28D004DC312B07D0322B1DD035E0342B26D0682B2AD030E01E4B1B78002B09D01C4B00221A703B
:4007C000FFF7BEFE1A4B181C00F020FC26E0174B01221A70FFF7B4FE164B181C00F016FC1CE0154B01221A7000F090F816E0124B02221A7000F0A0F810E00F4B04221A704A
:4008000000F0D6F80AE00D4B181C00F0FFFB00F059F803E00A4B181C00F0F8FB094B181C00F0F4FBBD4602B080BDC04664010020F81C0000101D000065010020281D00001A
:400840002C1D00003C1D000080B584B000AF021CFB1D1A70FB1D1B78782B1BD0FB1D1B78613BFB60FB68181CFFF750FF031C002B08D0FB68181CFFF711FF0D4B181C00F00C
:40088000C5FB07E0FB68181CFFF7C2FE094B181C00F0BCFB084B181C00F0B8FB074B181C00F0B4FB064B03221A70BD4604B080BD401D0000581D00006C1D00003C1D00001E
:4008C0006501002080B500AF0B4B1B78002B04D00A4B181C00F09AFB03E0094B181C00F095FB084B181C00F091FB074B181C00F08DFBBD4680BDC04664010020881D00003C
:40090000A41D0000C01D0000E01D000080B500AF064B181C00F07AFB054B181C00F076FB044B181C00F072FBBD4680BDFC1D0000301E00005C1E000080B596B000AF184BDB
:40094000181C00F063FB00237B651EE07B6D181CFFF7DCFE031C002B08D07B6D1A1C6132381D10497B6D00F031FE07E07B6D1A1C6132381D0C497B6D00F028FE3B1D181CB4
:4009800000F044FB7B6D01337B657B6D0F2BDDDD064B181C00F03AFBBD4616B080BDC046801E0000B41E0000CC1E0000E41E000080B500AF064B181C00F028FB054B181C1E
:4009C00000F024FB044B181C00F020FBBD4680BD0C1F0000281F00005C1E000080B500AFFEE7C04680B584B000AF7860104B1A687B68D3181A1C0F4BD21A80231B019A42AD
:400A000009DC0B4B1B68FB60094B1A687B68D218074B1A6007E000F0D9FC031C0C221A6001235B42FB60FB68181CBD4604B080BDD00000209001002080B586B000AF224BEC
:400A40007B61224B3B61204B7B6135E03B691B68FB603B695B68BB603B699B683B6000237B600CE0FB681A68BB681A60BB680433BB60FB680433FB607B6804337B607A6842
:400A80003B689A42EED13B69DB683B6000237B6008E0BB6800221A60BB680433BB607B6804337B607A683B689A42F2D13B6910333B617B69013B7B617B69002BC6D100F02E
:400AC0008BFCFFF7FBFCFEE7010000002823000080B582B000AF154B144A126801218A431A6000237B600FE07B68032B04D8104B7A689200D35800E00E4B0F4A79688900CA
:400B00008B507B6801337B607B682F2BECD9FFF7D1FA0A4B00221A60044B044A126801210A431A60BD4602B080BDC0460000104000000000DD09000000000020C000002006
:400B400080B582B000AF786039607A683B68101C00211A1C00F083FCBD4602B080BDC04680B584B000AFF860B9607A60F968BA687B68081C111C1A1C00F068FCBD4604B024
:400B800080BDC04680B586B000AF7860396000233B6100237B612EE07B699B007A68D3181B68BB603B1C0F33BA681A70BB68FF229343BB6017E03B695B003A68D3181B7821
:400BC0001A1CBB68D3183A69520039688A1852781A703B6901333B613B1C0F331A783B1C0F33013A1A703B1C0F331B78002BE2D17B6901337B617B69082BCDD9BD4606B0B4
:400C000080BDC04680B500AF054B03221A60054B03221A60044B00221A60BD4680BDC0463000304030003140000E3F40000000000230800803D00138FDD1C046C046C0460A
:400C40007047EFF3108072B6704780F31088704790B587B000AF03233B6100F0A9FA031C002B60D03C1C0F34FFF7EBFF031C237000237B6112E02D4B1B68DBB21A1C3F2372
:400C80001A402B497B69CB181B789A4203D17B6903333B6105E07B6901337B617B692D2BE9D9244B1A681F23134007D1214B214A12681F218A430C210A431A601E4B1A6834
:400CC0001E4B1340BB603B691D4A53438022D2019B18DB0B013B5B055B0DBA681343BB60BB68A02252031343BB60134BBA681A60144B1B687B60302000F07EFA124B124A04
:400D000012688021C9050A431A60A0235B00181C00F0A0F80B4B7A681A603B1C0F331B78181CFFF792FFBD4607B090BD2CFF0B409C22000034FF0B400800224000F8C0FFB6
:400D400040420F00300010400000224080B500AF034B034A1168034A0A401A60BD4680BD00002240FFFFFFBF80B500AF054B1A688023DB05134001D0012300E00023181CE1
:400D8000BD4680BD0000224090B58BB000AF786000237B623C1C2334FFF753FF031C2370FFF7E2FF031C002B03D001237B62FFF7CDFF1B4B1A683B1C08331A60194B1A6850
:400DC0003B1C08335A607B68033B174AD35C1A1C3B1C08339A60154B1A683B1C0833DA603B1C1833124A1A603A1C08323B1C18335A60104B3A1C18321A600F4B0F4A1A6080
:400E00000C4B1B687B6A012B01D1FFF721FF3B1C23331B78181CFFF718FFBD460BB090BD08010B4000010B409C22000030001040B6EA000008001040040010401700008092
:400E400080B582B000AF021CFB1D1A7001BEBD4602B080BD80B582B000AF786008E00C4B1B68181CFFF7E4FE7B680A4A9B187B607A6880231B029A42F1D8074B1B687A686C
:400E80005343181CFFF7D4FEBD4602B080BDC046E00000200080FFFFD800002080B500AF064B1B78002B04D100F00AF8034B01221A7000F023F8BD4680BDC0467401002097
:400EC00080B500AF084B72221A70084B20221A70074B06221A70074B47221A70064B00221A70BD4680BDC04681000F4080000F4023000F4033000F4082000F4090B583B016
:400F000000AFFC1DFFF79DFE031C2370114B114A1278D2B220210A43D2B21A700E4B0E4A1278D2B210210A43D2B21A700B4B0B4A1278D2B210210A43D2B21A70FF2000F0A6
:400F400045F9FB1D1B78181CFFF77FFEBD4603B090BDC04691000F4090000F4092000F4080B582B000AFFB1D00221A700D4ABB1D12781A70BB1D1A78202313400BD00A4AEC
:400F8000FB1D12781A70BB1D1A781E23134002D0FB1D00221A70FB1D1B78181CBD4602B080BDC04660000F4041000F4080B582B000AF021CFB1D1A70054B1B78002B03D0A4
:400FC000044BFA1D12781A70BD4602B080BDC0467401002042000F4080B582B000AF021CFB1D1A70C046074B1B78DBB21A1C04231340F8D1044BFA1D12781A70BD4602B063
:4010000080BDC04662000F4042000F4080B584B000AF78603B1C0E3300221A800F4B1B78002B18D00FE03B1C0E331B887A68D3181B78181CFFF7D0FF3B1C0E331A883B1CD3
:401040000E3301321A803B1C0E331B887A68D3181B78002BE7D1BD4604B080BD7401002080B582B000AF786000F04AF87B68181C00F008F8032000F011F800F037F8BD46F6
:4010800002B080BD80B582B000AF7860024B7A681A64BD4602B080BD0000002090B585B000AF021CFB1D1A700623FB603C1C0B34FFF7C7FD031C23700B4B0B4A1268C0211E
:4010C000101C8843011CFA1D1078FA68041C9440221C0A431A603B1C0B331B78181CFFF7B4FDBD4605B090BD00E400E080B500AF024B01221A60BD4680BDC04600E100E041
:4011000080B500AF024B01221A60BD4680BDC04680E100E080B582B000AF021CFB1D1A70034BFA1D12781A70BD4602B080BDC04670000F4080B500AF024B1B78DBB2181CCF
:40114000BD4680BD70000F4080B500AF0E4B0E4A126801218A431A600B4B0B4A126802218A431A60094B094A126830218A4310210A431A60054B054A126807218A43012102
:401180000A431A60BD4680BD00002240000F224080B500AFFFF7D8FF044B044A1268802109060A431A60BD4680BDC0460000224080B500AF044B1B68002B01DA012300E0AE
:4011C0000023181CBD4680BD0000224080B582B000AF7860C046064B1B68002BFBDB044B7A68120203490A431A60BD4602B080BD000001404100008090B585B000AF7860E0
:401200003C1C0F34FFF71DFD031C23707B68102B06D8154B144A126803218A431A601AE07B68202B08D8104B0F4A126803218A4301210A431A600EE07B68302B08D80A4B41
:40124000094A126803218A4302210A431A6002E00020FFF7F5FD3B1C0F331B78181CFFF7F4FCBD4605B090BD30001040002934D00123002210B488422CD301242407A142DE
:4012800004D2814202D209011B01F8E7E400A14204D2814202D249005B00F8E7884201D3401A1A434C08A04202D3001B5C0822438C08A04202D3001B9C082243CC08A0429C
:4012C00002D3001BDC082243002803D01B0901D00909E3E7101C10BC7047002801D00020C04307B4024802A14018029003BDC046D90000000029F0D003B5FFF7B9FF0EBCD4
:401300004243891A1847C046002941D010B4041C4C40A44601230022002900D54942002800D5404288422CD301242407A14204D2814202D209011B01F8E7E400A14204D233
:40134000814202D249005B00F8E7884201D3401A1A434C08A04202D3001B5C0822438C08A04202D3001B9C082243CC08A04202D3001BDC082243002803D01B0901D00909AF
:40138000E3E7101C6446002C00D5404210BC7047002806D003DB0020C043400801E08020000607B4024802A14018029003BDC046190000000029EBD003B5FFF7A7FF0EBC46
:4013C0004243891A1847C0467047C046014B18687047C0464401002070B50E4B0E4D0024ED1AAD101E1CAC4204D0A300F35898470134F8E700F086FF084B094D0024ED1ACE
:40140000AD101E1CAC4204D0A300F35898470134F8E770BD1023000010230000102300001823000008B5034B011C186800F068F808BDC0464401002008B5034B011C186841
:4014400000F016F808BDC0464401002010B50023934203D0CC5CC4540133F9E710BD031C8218934202D019700133FAE77047000030B5002940D004390B68002B00DAC91824
:401480001E4A1368141C002B02D14B60116033E099420FD208680A189A4205D113685268C01808604A6000E04B60216024E08A4203D8131C5A68002AF9D11D685C198C4269
:4014C0000BD10968691858181960904214D114685268091919605A600EE08C4202D90C23036009E008680C18944203D114685268001908604A60596030BDC0467C010020F9
:4015000070B50323CD1C9D430835061C0C2D01D20C2501E0002D3FDB8D423DD3204B1C681A1C211C002913D00868431B0DD40B2B02D90B60CC181EE08C4202D1636813609A
:401540001AE0486860600C1C16E00C1C4968E9E7144C2068002803D1301C00F025F82060301C291C00F020F8431C15D0C41C03239C4384420AD12560201C0B300722231DB5
:401580009043C31A0BD05A42E25008E0211A301C00F00AF80130EED10C233360002070BD7C0100207801002038B5074C0023051C081C2360FFF716FA431C03D12368002B22
:4015C00000D02B6038BDC046880100200EB400B59CB01DAB04CB822202A992008A810A4A02908A604A6101225242CA81074A086110681D9A019300F06BF8029A0023137017
:401600001CB008BC03B01847FFFFFF7F44010020F0B58D6885B0071C0C1C03920193AB4245D390228B89D20013423DD062690326564309692068F20F401A96190290021CA4
:401640000198013212187610964200D2161C381C5A050FD5311CFFF753FF051E13D0029A2169FFF7F3FEA289184B134080221343A38111E0321C00F0C9FA051E0CD1381C90
:401680002169FFF7F5FE0C233B60A389402213430120A381404217E0029B2561ED1825606661019DF61AA6600198A84200D2019D2A1C2068039900F090FAA2680020531BB4
:4016C000A36023685D19256005B0F0BD7FFBFFFFF0B59FB0039005938B890E1C171C19060FD53269002A0CD14021FFF709FF30603061002803D103990C230B60C9E0402394
:40170000736106AD00236B6120236B763023AB763C1C2378002B03D1E21B029211D003E0252BF9D00134F4E70398311C3A1C029BFFF76EFF013000D1A6E06969029A8B1854
:401740006B612378002B00D19EE0012252426A606A4600235B3201342B60EB60AB601370AB654E4F2178381C052200F02BFA002807D0C71B2B680120B84018432860013493
:40178000EFE72B68D90603D56A4620215B3211701A0703D56A462B215B32117022782A2A01D0099B0EE0059A111D12680591002A01DB099204E05242EA60022213432B6071
:4017C000013409E02278303A092A04D80A214B4301349B18F6E7099323782E2B18D163782A2B09D1059B02341A1D1B680592002B0DDA01235B420AE0013400232278303A77
:40180000092A04D80A214B4301349B18F6E70793234F2178381C032200F0D4F9002806D0C71B2B684020B84018432860013421781C480622671C297600F0C4F9002812D05F
:40184000194B002B06D1059B0722073393430833059314E005AB00930398291C321C134B00E000BF07E005AB00930398291C321C0E4B00F091F804900499013104D06A69C0
:40188000049953186B6143E7B3895A0601D40B9801E0012040421FB0F0BDC046CE220000D4220000D82200000000000011160000F7B5151C01930A698B68061C0C1C934213
:4018C00000DA131C221C2B6043321278002A01D001332B602068800602D52B6802332B60216806270F401FD0231C43331B785A1E9341226892061FD5E11840313020C87095
:40190000211C5A1C45310978A21840320233D17012E0221C301C019919320123089FB847013011D0009F01370097E0682968009F431A9F42EDDBD7E7221C301C01994332DB
:40194000089FB847013002D10120404223E0206806212B68E26801400025042903D1D51AEB43DB171D40A26823699A4201DDD31AED1800270097009FAF420BDA221C301CB9
:4019800001991A320123089FB8470130DCD0009F0137EFE70020FEBDF0B50D1C8BB0433506920590079304950B7E0C1C109A6E2B00D1A7E011D8632B22D009D8002B00D19F
:4019C000B0E0582B00D0C0E045310B707B4D4EE0642B1CD0692B1AD0B7E0732B00D1A5E009D86F2B29D0702B00D0AEE00E68202333430B6036E0752B1FD0782B32D0A4E024
:401A000013680D1C191D423511601B689FE0216813680E0603D5191D11601E6805E04806F9D5191D116000215E5E644B002E3BDA049D2D2276422A7036E0216813680E06DE
:401A400003D5191D11601E6804E04806F9D5191D1E881160594B227E039308276F2A1ED00A271CE0231C78214533554D197011682368081D039510601E0601D50E6802E059
:401A80005806FBD50E88D90702D52022134323601027002E03D1226820239A432260231C002243331A7001E003930A276368A360002B03DB2568042295432560002E02D13A
:401AC000049D002B0ED0049D301C391CFFF712FC0398013D435C301C2B70391CFFF7C6FB061EF1D1082F09D12168C90706D5626823699A4202DC013D30232B70049E731BF4
:401B000023612AE0086813684969050604D5181D10601B68196005E04606F8D5181D10601B68198000232361049D16E01368191D11601D68281C00F08FF863682061984270
:401B400000D923612069606004E0251C42352B7001232361049E00233370079E05980096211C09AA069BFFF7A3FE013002D10120404221E02A1C059806992369079DA8472F
:401B80000130F4D02668B60705D4099BE068984212DA181C10E00025E0680999431A9D42F3DA221C0598069919320123079EB0470130DCD00135EFE70BB0F0BDDF22000047
:401BC000F0220000C9B28218904204D003788B4202D00130F8E70020704770B5814201D300230CE08C18A042FAD28518131C013B0BD351426618F65C6918CE54F7E793425B
:401C000003D0CC5CC4540133F9E770BDF8B5061C0C1C151C002904D1111CFFF771FC041C18E0002A03D1FFF723FC2C1C12E000F01AF8A8420ED2301C291CFFF761FC071E60
:401C400007D0211C2A1CFFF701FC301C211CFFF70FFC3C1C201CF8BD0023C25C0133002AFBD1581E704704390B68181F002B02DAC8581B18181F7047000000000D0A000066
:401C80000D0A3E20000000003E20000052657475726E696E6720746F206D61696E206D656E752C2070726573732027682720666F722068656C702E0D0A000000496E7661A4
:401CC0006C696420726573706F6E73652C2063686F6F73653A20792F6E0D0A005A0300006E030000D0030000E4030000520400000D0A0D0A000000005475726E696E6720B5
:401D0000737769746368204F46460D0A0D0A00005475726E696E6720737769746368204F4E0D0A0D0A0000000D0A0000496E76616C696420696E7075740D0A003E200000C1
:401D40004465616374697661746564207377697463680D0A00000000416374697661746564207377697463680D0A00004368616E6765206D6F72652073776974636865733B
:401D80003F20792F6E0D0A00312E205475726E206F666620737769746368206D61747269780D0A00312E205475726E206F6E20737769746368206D61747269780D0A0000F3
:401DC000322E2053657420737769746368696E67206672657175656E63790D0A00000000332E204368616E67652061637469766520737769636865730D0A0000456E746522
:401E00007220612076616C696420737769746368696E67206672657175656E63792066726F6D20302D3330303030487A0D0A0000456E746572207468652066726571756579
:401E40006E637920696E20487A20616E6420707265737320454E5445520D0A0050726573732027782720746F2072657475726E20746F206D61696E206D656E750D0A000080
:401E8000456E74657220612063686172616374657220666F722077686963682073776974636820746F206164642F72656D6F76650D0A00002563292E204F757470757420BA
:401EC0002564202D204F4E0D0A0000002563292E204F7574707574202564202D204F46460D0A000078292E2043616E63656C20616E64207265737475726E20746F206D61F4
:401F0000696E206D656E752E0D0A0000456E746572696E67204465627567206D6F64652E2E2E0D0A00000000507265737320616E79206B657920746F206368616E67652080
:401F4000746F206E657874207377697463680D0A0000000000300F40800000310F40000300400F400004000080300F401C2200008000000003000F401D300F4045310F4051
:401F80006C320F4053330F4004400F4009420F400F430F4002600F4080388172820F030106010A080B020E011202130215041D081E0E23012A043004310232083304340179
:401FC00035083602370138803E553F5554185604580459045B045F0100A00220041A08400A400B010D220E2210081681172418A41B401C101D211E011F2421082280234837
:4020000024022541262428402E822F263101324133083609372039013A503B403D823E0842304520468047404C044E09544056105A015E0860046242681869016A406D40D4
:402040006E106F107301760B772482028F40C077C2F9C4F2CAF1CCEBCED5D0B0D230D641D80D032004800620081309130A0C0E150F20101311011204130A140A1513161401
:4020800019021A081B091C401E202003221424E028E02B042C202D102EC03010310C32E03303340F351037203A203E013F414034410645E046BC480E49FF4AFF4BFF4EF00C
:4020C0004F44500C5401580459045A045B045F0166C06A406B02822084148A038B0C8D208F4394DC958C96229713980999D19AD09B069F08A010A240A410A6ACA80CA9D136
:40210000AA71AB0EB1C0B21FB30FB4E0B530B922BA22BB08BF01C004C540C9FFCA07CBFFCC40CD20CEF0CF05D008D804D904DA04DF01E040E1A8E240E3200290030804801F
:402140000510072009080B040D090E020F04109415101662171419201B0A1D101EA01F0420402118230424082761280429202D402F043090311836013724388039203A8003
:402180003D103E403F0140404410468048804D214E405040528056505D015E805F18810283208521861287018A408B108E01914092409301940896809A209B189F40A5023F
:4021C000A611A70AA850B108B680C0EEC2F6C4FECA34CCEECEBCD0C1D220D6F0E002E8056B208320DA40E280520A54805F8063088E08D407D604D802E402040856808780F6
:402200008C049A809F80A880AA02B280B704C004D402E208E802EC04100111011C00E3040008F3000F00F000003C004282040080C3000003F3180C0041000000FF100000E5
:40224000046700180C3C0041087F00001C802C200F40C01F0020288000000004260405000100CE000CFFFFFF62A0F0410C000000000002120404040400000001000000007E
:4022800000004002001030100010101200000000000000000000000000000000030405060708090A0B0C0E0F101112131415161718191B1C1D1E1F2021222325262728294B
:4022C0002A2B2E2F30313233343500004300232D302B2000686C4C0065666745464700303132333435363738394142434445460030313233343536373839616263646566C7
:4023000000000000F8B5C046F8BC08BC9E467047F5020000D10A0000F8B5C046F8BC08BC9E467047CD02000038230000C80000208000000048000000000000006400000001
:402340009001002060E31600DC050000020000000000EE020000000000000000000000000000000000000000000000000000000000000000CC220000000000000000000092
:4023800000000000000000000000000000000000000000000000000000000000000000000000000000000000000000000000000000000000E4000020000000000000000019
:4023C00000000000000000000000000000000000000000000000000000000000000000000000000000000000000000000000000000000000000000000000000000000000DD
:40240000000000000000000000000000000000000000000000000000000000000000000000000000000000000000000000000000000000000000000000000000000000009C
:40244000000000000000000000000000000000000000000000000000000000000000000000000000000000000000000000000000000000000000000000000000000000005C
:40248000000000000000000000000000000000000000000000000000000000000000000000000000000000000000000000000000000000000000000000000000000000001C
:020000040001F9
:0200000490303A
:02000000617726
:0200000490402A
:4000000000000000000000000000000000000000000000000000000000000000000000000000000000000000000000000000000000000000000000000000000000000000C0
:400040000000000000000000000000000000000000000000000000000000000000000000000000000000000000000000000000000000000000000000000000000000000080
:0200000490501A
:0C0000000002112D11A10001113873182D
:0200000490600A
:0100000001FE
:00000001FF